{
  "contractName": "Charity",
  "abi": [
    {
      "inputs": [],
      "name": "totalRecords",
      "outputs": [
        {
          "internalType": "uint256",
          "name": "",
          "type": "uint256"
        }
      ],
      "stateMutability": "view",
      "type": "function",
      "constant": true
    },
    {
      "inputs": [
        {
          "internalType": "address payable",
          "name": "_owner",
          "type": "address"
        },
        {
          "internalType": "address payable",
          "name": "_charityAddress",
          "type": "address"
        },
        {
          "internalType": "string",
          "name": "_charityName",
          "type": "string"
        }
      ],
      "name": "listCharity",
      "outputs": [],
      "stateMutability": "nonpayable",
      "type": "function"
    },
    {
      "inputs": [
        {
          "internalType": "address",
          "name": "_a",
          "type": "address"
        }
      ],
      "name": "isContract",
      "outputs": [
        {
          "internalType": "bool",
          "name": "",
          "type": "bool"
        }
      ],
      "stateMutability": "view",
      "type": "function",
      "constant": true
    }
  ],
  "bytecode": "0x60806040526000805534801561001457600080fd5b506108ce806100246000396000f3fe608060405234801561001057600080fd5b50600436106100415760003560e01c8063125f89741461004657806316279055146100645780633bc3148014610094575b600080fd5b61004e6100b0565b60405161005b91906102cc565b60405180910390f35b61007e60048036038101906100799190610359565b6100b6565b60405161008b91906103a1565b60405180910390f35b6100ae60048036038101906100a99190610540565b6100c9565b005b60005481565b600080823b905060008111915050919050565b6100d2836100b6565b6100db57600080fd5b6100e4826100b6565b6100ed57600080fd5b600073ffffffffffffffffffffffffffffffffffffffff163373ffffffffffffffffffffffffffffffffffffffff160361012657600080fd5b6040518060c001604052808281526020018473ffffffffffffffffffffffffffffffffffffffff1681526020018373ffffffffffffffffffffffffffffffffffffffff1681526020016000815260200160008152602001600073ffffffffffffffffffffffffffffffffffffffff16815250600160008054815260200190815260200160002060008201518160000190816101c191906107c6565b5060208201518160010160006101000a81548173ffffffffffffffffffffffffffffffffffffffff021916908373ffffffffffffffffffffffffffffffffffffffff16021790555060408201518160020160006101000a81548173ffffffffffffffffffffffffffffffffffffffff021916908373ffffffffffffffffffffffffffffffffffffffff160217905550606082015181600301556080820151816004015560a08201518160050160006101000a81548173ffffffffffffffffffffffffffffffffffffffff021916908373ffffffffffffffffffffffffffffffffffffffff160217905550905050505050565b6000819050919050565b6102c6816102b3565b82525050565b60006020820190506102e160008301846102bd565b92915050565b6000604051905090565b600080fd5b600080fd5b600073ffffffffffffffffffffffffffffffffffffffff82169050919050565b6000610326826102fb565b9050919050565b6103368161031b565b811461034157600080fd5b50565b6000813590506103538161032d565b92915050565b60006020828403121561036f5761036e6102f1565b5b600061037d84828501610344565b91505092915050565b60008115159050919050565b61039b81610386565b82525050565b60006020820190506103b66000830184610392565b92915050565b60006103c7826102fb565b9050919050565b6103d7816103bc565b81146103e257600080fd5b50565b6000813590506103f4816103ce565b92915050565b600080fd5b600080fd5b6000601f19601f8301169050919050565b7f4e487b7100000000000000000000000000000000000000000000000000000000600052604160045260246000fd5b61044d82610404565b810181811067ffffffffffffffff8211171561046c5761046b610415565b5b80604052505050565b600061047f6102e7565b905061048b8282610444565b919050565b600067ffffffffffffffff8211156104ab576104aa610415565b5b6104b482610404565b9050602081019050919050565b82818337600083830152505050565b60006104e36104de84610490565b610475565b9050828152602081018484840111156104ff576104fe6103ff565b5b61050a8482856104c1565b509392505050565b600082601f830112610527576105266103fa565b5b81356105378482602086016104d0565b91505092915050565b600080600060608486031215610559576105586102f1565b5b6000610567868287016103e5565b9350506020610578868287016103e5565b925050604084013567ffffffffffffffff811115610599576105986102f6565b5b6105a586828701610512565b9150509250925092565b600081519050919050565b7f4e487b7100000000000000000000000000000000000000000000000000000000600052602260045260246000fd5b6000600282049050600182168061060157607f821691505b602082108103610614576106136105ba565b5b50919050565b60008190508160005260206000209050919050565b60006020601f8301049050919050565b600082821b905092915050565b60006008830261067c7fffffffffffffffffffffffffffffffffffffffffffffffffffffffffffffffff8261063f565b610686868361063f565b95508019841693508086168417925050509392505050565b6000819050919050565b60006106c36106be6106b9846102b3565b61069e565b6102b3565b9050919050565b6000819050919050565b6106dd836106a8565b6106f16106e9826106ca565b84845461064c565b825550505050565b600090565b6107066106f9565b6107118184846106d4565b505050565b5b818110156107355761072a6000826106fe565b600181019050610717565b5050565b601f82111561077a5761074b8161061a565b6107548461062f565b81016020851015610763578190505b61077761076f8561062f565b830182610716565b50505b505050565b600082821c905092915050565b600061079d6000198460080261077f565b1980831691505092915050565b60006107b6838361078c565b9150826002028217905092915050565b6107cf826105af565b67ffffffffffffffff8111156107e8576107e7610415565b5b6107f282546105e9565b6107fd828285610739565b600060209050601f831160018114610830576000841561081e578287015190505b61082885826107aa565b865550610890565b601f19841661083e8661061a565b60005b8281101561086657848901518255600182019150602085019450602081019050610841565b86831015610883578489015161087f601f89168261078c565b8355505b6001600288020188555050505b50505050505056fea26469706673582212209beb0c8efb4bb20f2565719f169aa7e09c883951d6d8081e12968f174a95035264736f6c63430008110033",
  "immutableReferences": {},
  "source": "// SPDX-License-Identifier: SEE LICENSE IN LICENSE\npragma solidity ^0.8.0;\n\ncontract Charity {\n    uint public totalRecords = 0;\n    mapping(uint => Record) records;\n\n    struct Record {\n        string charityName;\n        address payable owner;\n        address payable charityAddress;\n        uint256 totalDonos;\n        uint256 highestDono;\n        address payable highestDonor;\n    }\n\n    function listCharity(\n        address payable _owner,\n        address payable _charityAddress,\n        string memory _charityName\n    ) public {\n        require(isContract(_owner));\n        require(isContract(_charityAddress));\n        require(msg.sender != address(0));\n        \n        records[totalRecords] = Record(_charityName,_owner,_charityAddress,0,0,payable(address(0)));\n\n    }\n\n    function isContract(address _a) public view returns (bool) {\n        uint size;\n        assembly {\n            size := extcodesize(_a)\n        }\n        return size > 0;\n    }\n}\n",
  "sourcePath": "/home/diplo/CodeWisely/doin8/src/contracts/Charity.sol",
  "compiler": {
    "name": "solc",
    "version": "0.8.17+commit.8df45f5f.Emscripten.clang"
  },
  "schemaVersion": "3.4.9",
  "updatedAt": "2023-01-23T15:30:08.984Z",
  "networkType": "ethereum",
  "devdoc": {
    "kind": "dev",
    "methods": {},
    "version": 1
  },
  "userdoc": {
    "kind": "user",
    "methods": {},
    "version": 1
  }
}